:100000000C9434000C9451000C9451000C94510049
:100010000C9451000C9451000C9451000C9451001C
:100020000C9451000C9451000C9451000C9451000C
:100030000C9451000C9451000C9451000C945100FC
:100040000C9451000C9451000C9451000C945100EC
:100050000C9451000C9451000C9451000C945100DC
:100060000C9451000C94510011241FBECFEFD8E026
:10007000DEBFCDBF11E0A0E0B1E0E8E3F3E002C0F5
:1000800005900D92A030B107D9F711E0A0E0B1E0E2
:1000900001C01D92A030B107E1F70E9469010C94E4
:1000A0009A010C9400005E9A85E08A95F1F70000B1
:1000B0005E980895CF93662311F05C9A01C05C9816
:1000C0005D98209A219A529A539A5B985A98299847
:1000D000289887FD5B9AC82F86FD5A9AC5FD299AF4
:1000E000C4FD289A0E9453005B985A982998289832
:1000F000C3FD5B9AC2FD5A9AC1FD299AC0FD289A98
:100100000E945300289A299A5A9A5B9ACF9108958F
:100110005C985D9A20982198529853985E9A85E051
:100120008A95F1F70000189902C080E001C080E1D3
:10013000199980624A9980644B9980685E9895E02D
:100140009A95F1F700005E9A95E09A95F1F7000014
:1001500018998160199982604A9984604B998860E6
:100160005E9808950E94880087FDFCCF85E18A95FE
:10017000F1F700000E9488000895CF93C82F0E94D5
:10018000B2008C2F60E00E945A00CF910895CF9367
:10019000C82F0E94B2008C2F61E00E945A00CF91BC
:1001A0000895662311F4805809C0613011F4805419
:1001B00005C0623011F48C5601C08C520E94BD0003
:1001C00008950E94B20090E0089581E00E94BD0071
:1001D000089582E00E94BD000895CF93C82F0E9429
:1001E000B200CA30A1F4843148F0982F9054943171
:1001F00038F084518C3230F484E505C080E403C0CB
:1002000084E101C080E080580E94BD0004C08C2FB2
:1002100061E00E945A00CF910895CF93DF93EC01E3
:1002200002C00E94ED0089918823D9F7DF91CF9118
:100230000895CF93DF93EC0102C00E94ED00FE0110
:10024000219684918823C9F7DF91CF910895CF93A8
:10025000C82F549A559A569A209A219A529A539A8C
:100260008FEF99EF0197F1F700C00000299A289AC3
:100270000E9453008FE19EE40197F1F700C0000057
:100280000E9453008FEF90E00197F1F700C000004B
:100290000E9453008FEF90E00197F1F700C000003B
:1002A00028980E9453008FEF90E00197F1F700C06B
:1002B000000088E20E94BD0088E00E94BD000E940C
:1002C000E50086E00E94BD008C2F0E94BD00CF910A
:1002D000089522982A9A239A8CE00E94270183B1DC
:1002E000F8942B9A80E090E0DC0103C00196A11DF8
:1002F000B11D1A99FBCF883E23E0920720E0A207A8
:1003000020E0B20798F380E090E0DC0103C00196A2
:10031000A11DB11D1A9BFBCF883E23E0920720E070
:10032000A20720E0B20798F32B981A99FECF1A9BE8
:08033000FECFD7CFF894FFCFF8
:00000001FF
