:100000000C9434000C9451000C9451000C94510049
:100010000C9451000C9451000C9451000C9451001C
:100020000C9451000C9451000C9451000C9451000C
:100030000C9451000C9451000C9451000C945100FC
:100040000C9451000C9451000C9451000C945100EC
:100050000C9451000C9451000C9451000C945100DC
:100060000C9451000C94510011241FBECFEFD8E026
:10007000DEBFCDBF11E0A0E0B1E0ECE5FAE002C0E8
:1000800005900D92AE30B107D9F711E0AEE0B1E0C6
:1000900001C01D92AE30B107E1F70E944F010C94F0
:1000A0002C050C9400005E9A85E08A95F1F700001B
:1000B0005E9808951F93CF93DF930F92CDB7DEB76D
:1000C000662311F05C9A01C05C985D989AB19F60BC
:1000D0009AB91BB1107F982F92959F70912B9BB965
:1000E00089830E94530089818F70812B8BB90E9474
:1000F00053001F601BB90F90DF91CF911F9108959E
:100100005C985D9A8AB1807F8AB95E9A85E08A950B
:10011000F1F7000089B15E9895E09A95F1F700003B
:100120005E9A95E09A95F1F7000099B19F708295DB
:10013000807F5E98892B08950E94800087FDFCCF08
:1001400085E18A95F1F700000E9480000895CF9321
:10015000C82F0E949C008C2F60E00E945A00CF9113
:100160000895CF93C82F0E949C008C2F61E00E94BD
:100170005A00CF910895662311F4805809C0613068
:1001800011F4805405C0623011F48C5601C08C52B9
:100190000E94A70008950E949C0090E0089581E0CD
:1001A0000E94A700089582E00E94A7000895CF93BF
:1001B000C82F0E949C00CA30A1F4843148F0982FC7
:1001C0009054943138F084518C3230F484E505C079
:1001D00080E403C084E101C080E080580E94A70051
:1001E00004C08C2F61E00E945A00CF910895CF93F4
:1001F000DF93EC0102C00E94D70089918823D9F7D0
:10020000DF91CF910895CF93DF93EC0102C00E945C
:10021000D700FE01219684918823C9F7DF91CF9101
:100220000895CF93C82F8AB18F678AB98FEF99EF5E
:100230000197F1F700C00000599A589A0E945300A4
:100240008FE19EE40197F1F700C000000E94530087
:100250008FEF90E00197F1F700C000000E9453007B
:100260008FEF90E00197F1F700C0000058980E94CE
:1002700053008FEF90E00197F1F700C0000088E293
:100280000E94A70088E00E94A7000E94CF0086E09D
:100290000E94A7008C2F0E94A700CF910895CF93B2
:1002A000DF93CDB7DEB7C654D0400FB6F894DEBFAB
:1002B0000FBECDBF22982A9A8CE00E94110183B113
:1002C000F89480E8482E84E8582E8EE1682E712C30
:1002D00092E2292E312C2C0E3D1E8E010F5F1F4FF6
:1002E00040E050E0BA0104C04F5F5F4F6F4F7F4F57
:1002F0001A99FACF483E23E0520720E0620720E037
:10030000720790F380E090E0DC0103C00196A11D2C
:10031000B11D1A9BFBCF883E23E0920720E0A20785
:1003200020E0B20798F36C017D01C40ED51EE61ED5
:10033000F71EC301B201A70196010E9433024901D1
:100340005A0124E630E040E050E00E941402A70188
:1003500096010E94330224962FAF249725963FAF33
:10036000259726964FAF269727965FAF27970E942F
:10037000CF008DB79EB708970FB6F8949EBF0FBEFB
:100380008DBFEDB7FEB73196ADB7BEB712963C92B2
:100390002E92119780E091E09383828384829582EC
:1003A000A682B7820E945502ADB7BEB718960FB6A7
:1003B000F894BEBF0FBEADBFC1010E94F7008DB75C
:1003C0009EB708970FB6F8949EBF0FBE8DBFEDB7CE
:1003D000FEB73196ADB7BEB712961C930E93119728
:1003E00084E091E09383828324962FAD2497248325
:1003F00025963FAD2597358326964FAD26974683A4
:1004000027965FAD279757830E945502ADB7BEB7B9
:1004100018960FB6F894BEBF0FBEADBFC8010E94BC
:10042000F7001A9BFECF5CCF629FD001739FF00153
:10043000829FE00DF11D649FE00DF11D929FF00D74
:10044000839FF00D749FF00D659FF00D9927729FAB
:10045000B00DE11DF91F639FB00DE11DF91FBD0136
:10046000CF0111240895A1E21A2EAA1BBB1BFD0186
:100470000DC0AA1FBB1FEE1FFF1FA217B307E40783
:10048000F50720F0A21BB30BE40BF50B661F771FDB
:10049000881F991F1A9469F76095709580959095BB
:1004A0009B01AC01BD01CF010895AEE0B0E0EBE5EA
:1004B000F2E00C9403050D891E8986E08C831A8373
:1004C00009838FEF9FE79E838D83AE01475E5F4F69
:1004D000CE0101966F89788D0E947702EF81F885B1
:1004E000E00FF11F10822E96E4E00C941F05ADE0A2
:1004F000B0E0EDE7F2E00C94F5043C017D876C87F9
:100500005A01FC0117821682838181FFC8C12E0126
:100510000894411C511CF3019381EC85FD8593FDEA
:10052000859193FF8191FD87EC87882309F4B3C1FE
:10053000853241F493FD859193FF8191FD87EC878E
:10054000853229F490E0B3010E946B04E4CFFF24CC
:10055000EE2410E01032B0F48B3269F08C3228F4C3
:10056000803251F0833271F40BC08D3239F0803318
:1005700049F411602CC01260146029C0186027C0B3
:10058000106125C017FD2EC0282F20532A3098F463
:1005900016FF08C08F2D880FF82EFF0CFF0CF80EE9
:1005A000F20E15C08E2D880FE82EEE0CEE0CE80E24
:1005B000E20E10620CC08E3221F416FD6CC1106484
:1005C00006C08C3611F4106802C0883659F4EC85E8
:1005D000FD8593FD859193FF8191FD87EC878823AD
:1005E00009F0B8CF982F9554933018F0905293306B
:1005F00038F424E030E0A20EB31E3FE339830FC08D
:10060000833631F0833781F0833509F05AC022C038
:10061000F5018081898322E030E0A20EB31E21E043
:10062000C22ED12C420114C092E0292E312C2A0C6A
:100630003B1CF5018080918016FF03C06F2D70E098
:1006400002C06FEF7FEFC4010E9460046C01510192
:100650001F7715C082E0282E312C2A0C3B1CF50197
:100660008080918016FF03C06F2D70E002C06FEF95
:100670007FEFC4010E9455046C011068510113FD05
:100680001CC006C080E290E0B3010E946B04EA94B3
:100690008E2D90E0C816D906A8F30FC0F40117FDFF
:1006A000859117FF81914F0190E0B3010E946B0487
:1006B000E110EA940894C108D108C114D10471F77B
:1006C000E7C0843611F0893651F5F50117FF07C0F0
:1006D00080819181A281B38124E030E008C08081D3
:1006E0009181AA2797FDA095BA2F22E030E0A20EB3
:1006F000B31E012F0F76B7FF08C0B095A095909557
:1007000081959F4FAF4FBF4F0068BC01CD01A20143
:100710002AE030E00E949704D82ED4183FC08537D5
:1007200021F41F7E2AE030E020C0197F8F36A9F027
:10073000803720F4883509F0AEC00BC0803721F037
:10074000883709F0A8C001C0106114FF09C0146007
:1007500007C014FF08C0166006C028E030E005C0DE
:1007600020E130E002C020E132E0F50117FF07C0D0
:10077000608171818281938144E050E006C0608194
:10078000718180E090E042E050E0A40EB51EA2012D
:100790000E949704D82ED418012F0F7706FF09C0A6
:1007A0000E7FDF1430F404FF06C002FD04C00F7E8C
:1007B00002C01D2D01C01F2D802F90E004FF0CC032
:1007C000FE01ED0DF11D2081203311F4097E09C0D9
:1007D00002FF06C01E5F05C086789070009709F082
:1007E0001F5F802E992403FD12C000FF0DC0FD2C59
:1007F0001E1550F4FE0CF11A1E2D06C080E290E08A
:10080000B3010E946B041F5F1E15C0F304C01E15C8
:1008100010F4E11A01C0EE2484FE0FC080E390E0E2
:10082000B3010E946B0482FE1FC081FE03C088E5F5
:1008300090E010C088E790E00DC0C4018678907009
:10084000009791F081FC02C080E201C08BE207FDBD
:100850008DE290E0B3010E946B0406C080E390E05B
:10086000B3010E946B04FA94DF14C0F3DA94F2012E
:10087000ED0DF11D808190E0B3010E946B04DD203D
:10088000A9F706C080E290E0B3010E946B04EA94ED
:10089000EE20C1F740CEF3018681978102C08FEF31
:1008A0009FEF2D96E2E10C941105FC01059061503B
:1008B00070400110D8F7809590958E0F9F1F089576
:1008C000FC016150704001900110D8F7809590951F
:1008D0008E0F9F1F08950F931F93CF93DF938C016B
:1008E000EB018B8181FF1BC082FF0DC02E813F81F8
:1008F0008C819D812817390764F4E881F98101937F
:10090000F983E88306C0E885F985802F099500976B
:1009100031F48E819F8101969F838E8302C00FEFF9
:100920001FEFC801DF91CF911F910F910895FA0138
:10093000AA27283051F1203181F1E8946F936E7F1E
:100940006E5F7F4F8F4F9F4FAF4FB1E03ED0B4E00F
:100950003CD0670F781F891F9A1FA11D680F791F50
:100960008A1F911DA11D6A0F711D811D911DA11D61
:1009700020D009F468943F912AE0269F1124301971
:10098000305D3193DEF6CF010895462F4770405D0C
:100990004193B3E00FD0C9F7F6CF462F4F70405DBB
:1009A0004A3318F0495D31FD4052419302D0A9F716
:1009B000EACFB4E0A6959795879577956795BA9510
:1009C000C9F700976105710508959B01AC010A2ED6
:1009D00006945795479537952795BA95C9F7620FAD
:1009E000731F841F951FA01D08952F923F924F9251
:1009F0005F926F927F928F929F92AF92BF92CF92AF
:100A0000DF92EF92FF920F931F93CF93DF93CDB7B7
:100A1000DEB7CA1BDB0B0FB6F894DEBF0FBECDBF2F
:100A200009942A88398848885F846E847D848C8400
:100A30009B84AA84B984C884DF80EE80FD800C8109
:100A40001B81AA81B981CE0FD11D0FB6F894DEBFEC
:0C0A50000FBECDBFED010895F894FFCF5C
:0E0A5C0025642E002530326420487A0A0000FE
:00000001FF
