:100000000C9434000C9451000C9451000C94510049
:100010000C9451000C9451000C9451000C9451001C
:100020000C9451000C9451000C9451000C9451000C
:100030000C9451000C9451000C9451000C945100FC
:100040000C9451000C9451000C9451000C945100EC
:100050000C9451000C9451000C9451000C945100DC
:100060000C9451000C94510011241FBECFEFD8E026
:10007000DEBFCDBF11E0A0E0B1E0ECEAFBE002C0E2
:1000800005900D92A431B107D9F711E0A4E1B1E0D8
:1000900001C01D92A431B107E1F70E9469010C94DF
:1000A000D4050C9400005E9A85E08A95F1F7000073
:1000B0005E980895CF93662311F05C9A01C05C9816
:1000C0005D98209A219A529A539A5B985A98299847
:1000D000289887FD5B9AC82F86FD5A9AC5FD299AF4
:1000E000C4FD289A0E9453005B985A982998289832
:1000F000C3FD5B9AC2FD5A9AC1FD299AC0FD289A98
:100100000E945300289A299A5A9A5B9ACF9108958F
:100110005C985D9A20982198529853985E9A85E051
:100120008A95F1F70000189902C080E001C080E1D3
:10013000199980624A9980644B9980685E9895E02D
:100140009A95F1F700005E9A95E09A95F1F7000014
:1001500018998160199982604A9984604B998860E6
:100160005E9808950E94880087FDFCCF85E18A95FE
:10017000F1F700000E9488000895CF93C82F0E94D5
:10018000B2008C2F60E00E945A00CF910895CF9367
:10019000C82F0E94B2008C2F61E00E945A00CF91BC
:1001A0000895662311F4805809C0613011F4805419
:1001B00005C0623011F48C5601C08C520E94BD0003
:1001C00008950E94B20090E0089581E00E94BD0071
:1001D000089582E00E94BD000895CF93C82F0E9429
:1001E000B200CA30A1F4843148F0982F9054943171
:1001F00038F084518C3230F484E505C080E403C0CB
:1002000084E101C080E080580E94BD0004C08C2FB2
:1002100061E00E945A00CF910895CF93DF93EC01E3
:1002200002C00E94ED0089918823D9F7DF91CF9118
:100230000895CF93DF93EC0102C00E94ED00FE0110
:10024000219684918823C9F7DF91CF910895CF93A8
:10025000C82F549A559A569A209A219A529A539A8C
:100260008FEF99EF0197F1F700C00000299A289AC3
:100270000E9453008FE19EE40197F1F700C0000057
:100280000E9453008FEF90E00197F1F700C000004B
:100290000E9453008FEF90E00197F1F700C000003B
:1002A00028980E9453008FEF90E00197F1F700C06B
:1002B000000088E20E94BD0088E00E94BD000E940C
:1002C000E50086E00E94BD008C2F0E94BD00CF910A
:1002D0000895CF93DF93CDB7DEB7C051D1400FB6AD
:1002E000F894DEBF0FBECDBF22982A9A8CE00E9400
:1002F000270183B1F89466247724CE01855F9E4F51
:10030000C55FDE4F99838883CB50D1408E010F5F4C
:100310001F4F88249924540105C00894811C911C06
:10032000A11CB11C1A99F9CF98EE891693E0990691
:1003300090E0A90690E0B90680F3F301EE0FFF1FED
:10034000EE0FFF1FA3E4B0E0AC0FBD1FEA0FFB1FD1
:1003500080829182A282B382C301019662E370E03F
:100360000E94C7023C018133910509F0EEC0FE01F5
:10037000ED5BFF4FCC24DD24760181919191A19119
:10038000B191C80ED91EEA1EFB1EC55FDE4F8881E3
:100390009981CB50D140E817F90779F760E37DE206
:1003A0008AEF92E0A70196010E94DB0219012A015F
:1003B00028EE33E040E050E00E94A802A701960139
:1003C0000E94DB02C35FDE4F2883CD50D140C25F65
:1003D000DE4F3883CE50D140C15FDE4F4883CF50CF
:1003E000D140C05FDE4F5883C051D1400E94E5002C
:1003F000ADB7BEB718970FB6F894BEBF0FBEADBF6E
:10040000EDB7FEB7319682E290E08C0F9D1F1296F9
:100410009C938E931197A0E0B1E0B383A2832482D2
:100420003582468257820E94FD028DB79EB708969C
:100430000FB6F8949EBF0FBE8DBFCE0182960E946C
:100440000D01ADB7BEB718970FB6F894BEBF0FBE7B
:10045000ADBFEDB7FEB7319612961C930E93119770
:1004600085E091E093838283C35FDE4F2881CD5086
:10047000D1402483C25FDE4F3881CE50D1403583D6
:10048000C15FDE4F4881CF50D1404683C05FDE4F11
:100490005881C051D14057830E94FD02ADB7BEB70D
:1004A00018960FB6F894BEBF0FBEADBFC8010E942C
:1004B0000D018DB79EB708970FB6F8949EBF0FBE7B
:1004C0008DBFEDB7FEB73196ADB7BEB712961C9390
:1004D0000E9311978FE091E09383828384829582BB
:1004E000A682B7820E94FD02ADB7BEB718960FB6BE
:1004F000F894BEBF0FBEADBFC8010E940D018DB7FD
:100500009EB708970FB6F8949EBF0FBE8DBFEDB78C
:10051000FEB73196ADB7BEB712961C930E931197E6
:100520008FE091E093838283C482D582E682F78252
:100530000E94FD02ADB7BEB718960FB6F894BEBFC5
:100540000FBEADBFC8010E940D011A9BFECFE1CEC8
:10055000629FD001739FF001829FE00DF11D649FA7
:10056000E00DF11D929FF00D839FF00D749FF00D33
:10057000659FF00D9927729FB00DE11DF91F639FD4
:10058000B00DE11DF91FBD01CF0111240895AA1B73
:10059000BB1B51E107C0AA1FBB1FA617B70710F06E
:1005A000A61BB70B881F991F5A95A9F780959095A0
:1005B000BC01CD010895A1E21A2EAA1BBB1BFD01AF
:1005C0000DC0AA1FBB1FEE1FFF1FA217B307E40732
:1005D000F50720F0A21BB30BE40BF50B661F771F8A
:1005E000881F991F1A9469F760957095809590956A
:1005F0009B01AC01BD01CF010895AEE0B0E0E3E0A6
:10060000F3E00C94AB050D891E8986E08C831A8378
:1006100009838FEF9FE79E838D83AE01475E5F4F17
:10062000CE0101966F89788D0E941F03EF81F885B6
:10063000E00FF11F10822E96E4E00C94C705ADE0A8
:10064000B0E0E5E2F3E00C949D053C017D876C870A
:100650005A01FC0117821682838181FFC8C12E01D5
:100660000894411C511CF3019381EC85FD8593FD99
:10067000859193FF8191FD87EC87882309F4B3C1AD
:10068000853241F493FD859193FF8191FD87EC873D
:10069000853229F490E0B3010E941305E4CFFF24D2
:1006A000EE2410E01032B0F48B3269F08C3228F472
:1006B000803251F0833271F40BC08D3239F08033C7
:1006C00049F411602CC01260146029C0186027C062
:1006D000106125C017FD2EC0282F20532A3098F412
:1006E00016FF08C08F2D880FF82EFF0CFF0CF80E98
:1006F000F20E15C08E2D880FE82EEE0CEE0CE80ED3
:10070000E20E10620CC08E3221F416FD6CC1106432
:1007100006C08C3611F4106802C0883659F4EC8596
:10072000FD8593FD859193FF8191FD87EC8788235B
:1007300009F0B8CF982F9554933018F09052933019
:1007400038F424E030E0A20EB31E3FE339830FC03B
:10075000833631F0833781F0833509F05AC022C0E7
:10076000F5018081898322E030E0A20EB31E21E0F2
:10077000C22ED12C420114C092E0292E312C2A0C19
:100780003B1CF5018080918016FF03C06F2D70E047
:1007900002C06FEF7FEFC4010E9408056C01510198
:1007A0001F7715C082E0282E312C2A0C3B1CF50146
:1007B0008080918016FF03C06F2D70E002C06FEF44
:1007C0007FEFC4010E94FD046C011068510113FD0C
:1007D0001CC006C080E290E0B3010E941305EA94B9
:1007E0008E2D90E0C816D906A8F30FC0F40117FDAE
:1007F000859117FF81914F0190E0B3010E9413058D
:10080000E110EA940894C108D108C114D10471F729
:10081000E7C0843611F0893651F5F50117FF07C09E
:1008200080819181A281B38124E030E008C0808181
:100830009181AA2797FDA095BA2F22E030E0A20E61
:10084000B31E012F0F76B7FF08C0B095A095909505
:1008500081959F4FAF4FBF4F0068BC01CD01A201F2
:100860002AE030E00E943F05D82ED4183FC08537DB
:1008700021F41F7E2AE030E020C0197F8F36A9F0D6
:10088000803720F4883509F0AEC00BC0803721F0E6
:10089000883709F0A8C001C0106114FF09C01460B6
:1008A00007C014FF08C0166006C028E030E005C08D
:1008B00020E130E002C020E132E0F50117FF07C07F
:1008C000608171818281938144E050E006C0608143
:1008D000718180E090E042E050E0A40EB51EA201DC
:1008E0000E943F05D82ED418012F0F7706FF09C0AC
:1008F0000E7FDF1430F404FF06C002FD04C00F7E3B
:1009000002C01D2D01C01F2D802F90E004FF0CC0E0
:10091000FE01ED0DF11D2081203311F4097E09C087
:1009200002FF06C01E5F05C086789070009709F030
:100930001F5F802E992403FD12C000FF0DC0FD2C07
:100940001E1550F4FE0CF11A1E2D06C080E290E038
:10095000B3010E9413051F5F1E15C0F304C01E15CE
:1009600010F4E11A01C0EE2484FE0FC080E390E091
:10097000B3010E94130582FE1FC081FE03C088E5FB
:1009800090E010C088E790E00DC0C40186789070B8
:10099000009791F081FC02C080E201C08BE207FD6C
:1009A0008DE290E0B3010E94130506C080E390E061
:1009B000B3010E941305FA94DF14C0F3DA94F20134
:1009C000ED0DF11D808190E0B3010E941305DD2043
:1009D000A9F706C080E290E0B3010E941305EA94F3
:1009E000EE20C1F740CEF3018681978102C08FEFE0
:1009F0009FEF2D96E2E10C94B905FC010590615042
:100A000070400110D8F7809590958E0F9F1F089524
:100A1000FC016150704001900110D8F780959095CD
:100A20008E0F9F1F08950F931F93CF93DF938C0119
:100A3000EB018B8181FF1BC082FF0DC02E813F81A6
:100A40008C819D812817390764F4E881F98101932D
:100A5000F983E88306C0E885F985802F099500971A
:100A600031F48E819F8101969F838E8302C00FEFA8
:100A70001FEFC801DF91CF911F910F910895FA01E7
:100A8000AA27283051F1203181F1E8946F936E7FCD
:100A90006E5F7F4F8F4F9F4FAF4FB1E03ED0B4E0BE
:100AA0003CD0670F781F891F9A1FA11D680F791FFF
:100AB0008A1F911DA11D6A0F711D811D911DA11D10
:100AC00020D009F468943F912AE0269F1124301920
:100AD000305D3193DEF6CF010895462F4770405DBB
:100AE0004193B3E00FD0C9F7F6CF462F4F70405D6A
:100AF0004A3318F0495D31FD4052419302D0A9F7C5
:100B0000EACFB4E0A6959795879577956795BA95BE
:100B1000C9F700976105710508959B01AC010A2E84
:100B200006945795479537952795BA95C9F7620F5B
:100B3000731F841F951FA01D08952F923F924F92FF
:100B40005F926F927F928F929F92AF92BF92CF925D
:100B5000DF92EF92FF920F931F93CF93DF93CDB766
:100B6000DEB7CA1BDB0B0FB6F894DEBF0FBECDBFDE
:100B700009942A88398848885F846E847D848C84AF
:100B80009B84AA84B984C884DF80EE80FD800C81B8
:100B90001B81AA81B981CE0FD11D0FB6F894DEBF9B
:0C0BA0000FBECDBFED010895F894FFCF0B
:100BAC00256C752E002530336C7520487A0A00258B
:040BBC006C750A004A
:00000001FF
