:100000000C9434000C9493010C9451000C94510006
:100010000C9451000C9451000C9451000C9451001C
:100020000C9451000C9451000C9451000C9451000C
:100030000C9451000C9459010C9451000C945100F3
:100040000C9451000C9451000C94F2010C94200279
:100050000C9451000C9451000C9451000C945100DC
:100060000C9451000C94510011241FBECFEFD8E026
:10007000DEBFCDBF12E0A0E0B1E0E0EEF3E202C0EF
:1000800005900D92A831B107D9F712E0A8E1B2E0CE
:1000900001C01D92AB39B107E1F70E94D10E0C945B
:1000A000EE110C9400005298539A0895E9E6F0E09E
:1000B00080818260808380818E7F8083E89A08952A
:1000C000E1E8F0E080818160808380818B7F8083A4
:1000D000EFE6F0E080818160808308950E94530004
:1000E0000E9456000E94600087E690E00E944A024B
:1000F0001092990210929802789408952F923F924C
:100100004F925F926F927F928F929F92AF92BF9227
:10011000CF92DF92EF92FF920F931F93CF93DF93D3
:1001200080918F02823009F0ABC0C0909002D090D5
:100130009102E0909202F09093020E94630221E00B
:100140008030920709F49FC01601270120E030EAB1
:100150004CEA59EB63E070E080E090E05601620108
:10016000EE24FF2400E010E00E94DF02B901CA0182
:100170000E94640C2EEE3CE743EC50E40E94E10A3E
:100180002DEB37E346E059E30E94750A0E94AF0267
:10019000582F492F8DB79EB708970FB6F8949EBF7A
:1001A0000FBE8DBF2DB63EB60894211C311CCDE587
:1001B000D2E0ADB7BEB71296DC93CE93119720E094
:1001C00031E0F10133832283852F942F28EE33E031
:1001D00040E050E00E94D60E6B017C01D1011496E4
:1001E0002D933D934D935C9317970E944E0FEDB75F
:1001F000FEB738960FB6F894FEBF0FBEEDBFCE0126
:100200000E949502FE0101900020E9F73197EC1B56
:10021000FD0B80919A028E0F80939A028DB79EB744
:1002200008970FB6F8949EBF0FBE8DBFEDB7FEB70F
:100230003196ADB7BEB71296DC93CE93119785E099
:1002400091E093838283C482D582E682F7820E9402
:100250004E0FEDB7FEB738960FB6F894FEBF0FBE3F
:10026000EDBFCE010E94950209900020E9F7219789
:10027000CD55D24080919A028C0F80939A0203C090
:1002800080918F0201C080E080938F02DF91CF9137
:100290001F910F91FF90EF90DF90CF90BF90AF90A4
:1002A0009F908F907F906F905F904F903F902F9096
:1002B00008951F920F920FB60F9211248F939F9360
:1002C000AF93BF938091940290919502A091960272
:1002D000B09197020196A11DB11D80939402909355
:1002E0009502A0939602B093970280919802909104
:1002F0009902843F910528F080919802909199028B
:1003000005C080919802909199020196909399026C
:1003100080939802BF91AF919F918F910F900FBEE4
:100320000F901F9018951F920F920FB60F921124E5
:100330004F935F936F937F938F939F93AF93BF93ED
:1003400090918F02992399F4109285001092840065
:1003500010929402109295021092960210929702B7
:10036000B09A8BB198E089278BB981E02CC090912D
:100370008F02913019F54091840050918500809151
:10038000940290919502A0919602B0919702DC019F
:100390009927882760E070E0840F951FA61FB71F7C
:1003A0008093900290939102A0939202B093930253
:1003B0008BB198E089278BB982E005C090918F02BC
:1003C000923009F080E080938F02BF91AF919F91AE
:1003D0008F917F916F915F914F910F900FBE0F9012
:1003E0001F9018951F920F920FB60F9211242F9302
:1003F0008F939F93EF93FF939091C0008091C600DD
:10040000E0911A02EF5FEF7120911902E21741F0BB
:100410009C71E0931A02F0E0E35EFD4F808301C01F
:1004200092E080911802892B80931802FF91EF913E
:100430009F918F912F910F900FBE0F901F90189545
:100440001F920F920FB60F9211248F939F93EF93E9
:10045000FF9390911C0280911B02981769F0E09124
:100460001B02EF5FEF71E0931B02F0E0E35CFD4FD6
:1004700080818093C60005C08091C1008F7D8093EC
:10048000C100FF91EF919F918F910F900FBE0F9040
:100490001F90189510921C0210921B0210921A02C3
:1004A0001092190297FF03C022E02093C0009078B9
:1004B0009093C5008093C40088E98093C10086E0D2
:1004C0008093C200089590911A02809119029817A2
:1004D000A1F0809119028F5F8F71E82FF0E0E35E49
:1004E000FD4F20813091180280931902109218025A
:1004F000932F80E0820F911D089580E091E0089590
:1005000090911C029F5F9F7120911B029217E1F353
:10051000E92FF0E0E35CFD4F808390931C02809113
:10052000C10080628093C1000895CF93DF93EC01F6
:1005300002C00E94800289918823D9F7DF91CF9170
:100540000895CF93DF93EC0102C00E948002FE0168
:10055000219684918823C9F7DF91CF910895CF9296
:10056000DF92EF92FF920F931F936B017C0120E0CB
:1005700030E040E05FE40E94E20B87FD11C0C7015C
:10058000B60120E030E040E05FE40E94A90A0E944A
:10059000130C8B019C01005010402040304806C0D5
:1005A000C701B6010E94130C8B019C01B801C9015F
:1005B0001F910F91FF90EF90DF90CF900895A4E3EB
:1005C000B0E0E5EEF2E00C94180F298B3A8B4B8BE0
:1005D0005C8B6D8B7E8B8F8B988FA986BA86CB8632
:1005E000DC86ED86FE860F87188B89849A84AB841F
:1005F000BC848D859E85AF85B88909891A892B8928
:100600003C890DA31EA32FA338A7CD88DE88EF88D1
:10061000F88C0097A105B10509F0B5C3C814D90439
:10062000EA04FB0408F04DC110E0811610E09106C9
:1006300011E0A10610E0B10658F42FEF82169104E4
:10064000A104B10409F090F480E090E0DC0117C04F
:1006500030E0831630E0930630E0A30631E0B306C5
:1006600050F480E190E0A0E0B0E009C088E090E0C4
:10067000A0E0B0E004C088E190E0A0E0B0E0B50107
:10068000A401082E04C076956795579547950A945E
:10069000D2F7FA01E85EFE4F208140E250E060E0D0
:1006A00070E0481B590B6A0B7B0B421B5109610917
:1006B00071094115510561057105A1F1042E04C0B0
:1006C000880C991CAA1CBB1C0A94D2F797018601BE
:1006D000042E04C0000F111F221F331F0A94D2F7EB
:1006E00080E290E0841B950BCDA0DEA0EFA0F8A4E3
:1006F00004C0F694E794D794C7948A95D2F7C02A99
:10070000D12AE22AF32A0DA11EA12FA138A504C0E7
:10071000000F111F221F331F4A95D2F70DA31EA3EE
:100720002FA338A725016624772495018401207022
:10073000307009A31AA32BA33CA3C701B601A301E0
:1007400092010E94D60E2D8F3E8F4F8F58A3698F36
:100750007A8F8B8F9C8FC701B601A30192010E94F3
:10076000D60ECA01B90129A13AA14BA15CA10E94F0
:10077000F80EAB01BC01098D1A8D2B8D3C8D7801D3
:10078000DD24CC240DA11EA12FA138A5C901AA27C3
:10079000BB27C82AD92AEA2AFB2A0D8D1E8D2F8D48
:1007A00038A1C416D506E606F70638F50150104004
:1007B00020403040098F1A8F2B8F3C8FC80CD91CDA
:1007C000EA1CFB1CC814D904EA04FB04D0F0C416CC
:1007D000D506E606F706A8F40D8D1E8D2F8D38A1DF
:1007E0000250104020403040098F1A8F2B8F3C8FD1
:1007F000C80CD91CEA1CFB1C04C0098F1A8F2B8F54
:100800003C8FC41AD50AE60AF70AC701B601A3014C
:1008100092010E94D60E2D8F3E8F4F8F58A369A74D
:100820007AA78BA79CA7C701B601A30192010E94DA
:10083000D60ECA01B90129A13AA14BA15CA10E941F
:10084000F80E6B017C0149A55AA56BA57CA59A0100
:10085000112700274DA15EA16FA178A5607070706F
:10086000042B152B262B372B8D8D9E8DAF8DB8A18C
:100870000C151D052E053F05C0F40197A109B1090E
:10088000080D191D2A1D3B1D081519052A053B05D4
:1008900060F00C151D052E053F0538F48D8D9E8DDD
:1008A000AF8DB8A10297A109B109098D1A8D2B8DC1
:1008B0003C8D7801DD24CC24C82AD92AEA2AFB2AD7
:1008C000A5C481149104A104B10451F461E070E065
:1008D00080E090E0A50194010E94D60E49015A01E2
:1008E00010E0811610E0910611E0A10610E0B106BB
:1008F00058F42FEF82169104A104B10409F090F48A
:1009000080E090E0DC0117C030E0831630E0930611
:1009100030E0A30631E0B30650F480E190E0A0E0BF
:10092000B0E009C088E090E0A0E0B0E004C088E159
:1009300090E0A0E0B0E0B501A401082E04C07695D7
:100940006795579547950A94D2F7FA01E85EFE4FEE
:100950002081AC01BD01420F511D611D711D80E25E
:1009600090E0A0E0B0E0841B950BA60BB70B51F410
:10097000C818D908EA08FB08F1E04F2E512C612C69
:10098000712C24C1082E04C0880C991CAA1CBB1C05
:100990000A94D2F797018601042E04C03695279554
:1009A000179507950A94D2F709A31AA32BA33CA382
:1009B00097018601082E04C0000F111F221F331F4C
:1009C0000A94D2F70D8F1E8F2F8F38A30DA11EA171
:1009D0002FA138A504C036952795179507954A95F8
:1009E000D2F7B901A8010D8D1E8D2F8D38A1042BD2
:1009F000152B262B372B0D8F1E8F2F8F38A30DA174
:100A00001EA12FA138A504C0000F111F221F331FE4
:100A10008A95D2F70DA31EA32FA338A7250166241C
:100A20007724950184012070307009A71AA72BA79D
:100A30003CA769A17AA18BA19CA1A30192010E946C
:100A4000D60E298F3A8F4B8F5C8F6B017C0169A189
:100A50007AA18BA19CA1A30192010E94D60ECA018A
:100A6000B90129A53AA54BA55CA50E94F80EAB01DA
:100A7000BC017601DD24CC240D8D1E8D2F8D38A177
:100A8000C901AA27BB27C82AD92AEA2AFB2A098D25
:100A90001A8D2B8D3C8DC416D506E606F70638F563
:100AA000015010402040304009A31AA32BA33CA3BF
:100AB000C80CD91CEA1CFB1CC814D904EA04FB04AA
:100AC000D0F0C416D506E606F706A8F4098D1A8DEF
:100AD0002B8D3C8D025010402040304009A31AA3BA
:100AE0002BA33CA3C80CD91CEA1CFB1C04C009A303
:100AF0001AA32BA33CA3C41AD50AE60AF70AC70116
:100B0000B601A30192010E94D60E298F3A8F4B8F16
:100B10005C8F6DA77EA78FA798ABC701B601A30115
:100B200092010E94D60ECA01B90129A53AA54BA58A
:100B30005CA50E94F80E8B019C014DA55EA56FA5DA
:100B400078A9DA01992788274D8D5E8D6F8D78A160
:100B500060707070842B952BA62BB72B498D5A8D06
:100B60006B8D7C8D80179107A207B307F0F441507D
:100B7000504060407040880D991DAA1DBB1D88150E
:100B80009905AA05BB0588F080179107A207B3074E
:100B900060F4498D5A8D6B8D7C8D42505040604081
:100BA0007040880D991DAA1DBB1D6C017D01C01AE6
:100BB000D10AE20AF30A09A11AA12BA13CA138012A
:100BC00055244424442A552A662A772A8501222757
:100BD00033270D8F1E8F2F8F38A39501840120702E
:100BE000307009A71AA72BA73CA7C701B6012D8D06
:100BF0003E8D4F8D58A10E94D60E298F3A8F4B8F74
:100C00005C8F69A37AA38BA39CA3C701B6012D8D2A
:100C10003E8D4F8D58A10E94D60ECA01B90129A55B
:100C20003AA54BA55CA50E94F80EAB01BC0109A139
:100C30001AA12BA13CA17801DD24CC240DA11EA179
:100C40002FA138A5C901AA27BB27C82AD92AEA2A71
:100C5000FB2A098D1A8D2B8D3C8DC416D506E60610
:100C6000F70638F5015010402040304009A31AA380
:100C70002BA33CA3C80CD91CEA1CFB1CC814D90428
:100C8000EA04FB04D0F0C416D506E606F706A8F47D
:100C9000098D1A8D2B8D3C8D025010402040304024
:100CA00009A31AA32BA33CA3C80CD91CEA1CFB1C48
:100CB00004C009A31AA32BA33CA3C41AD50AE60AAD
:100CC000F70AC701B6012D8D3E8D4F8D58A10E94A8
:100CD000D60E298F3A8F4B8F5C8F6DA77EA78FA77B
:100CE00098ABC701B6012D8D3E8D4F8D58A10E9446
:100CF000D60ECA01B90129A53AA54BA55CA50E944B
:100D0000F80E8B019C014DA55EA56FA578A9DA01AF
:100D1000992788274DA15EA16FA178A5607070709A
:100D2000842B952BA62BB72B498D5A8D6B8D7C8DE3
:100D300080179107A207B307D0F44150504060409C
:100D40007040880D991DAA1DBB1D88159905AA051F
:100D5000BB0568F080179107A207B30740F4498DDF
:100D60005A8D6B8D7C8D425050406040704009A17F
:100D70001AA12BA13CA17801DD24CC24C42AD52AB8
:100D8000E62AF72A46C2C816D906EA06FB0608F480
:100D90002DC2803010E0910711E0A10710E0B107EB
:100DA00050F48F3F9105A105B10509F088F400E0EA
:100DB00010E0980116C0803020E0920720E0A207E2
:100DC00021E0B20750F400E110E020E030E009C07B
:100DD00008E010E020E030E004C008E110E020E08E
:100DE00030E0AC01BD01002E04C0769567955795A3
:100DF00047950A94D2F7FA01E85EFE4F4081040F4E
:100E0000111D211D311D40E250E060E070E0401BEB
:100E1000510B620B730BA1F48C159D05AE05BF053C
:100E200008F4EBC10DA11EA12FA138A5442455241F
:100E30003201081519052A053B0508F0E1C1D9C1A1
:100E4000342E2C013D0104C0440C551C661C771C3B
:100E50004A95D2F7D501C401002E04C0B695A795D6
:100E6000979587950A94D2F7482A592A6A2A7B2AA5
:100E7000A5019401032C04C0220F331F441F551FEA
:100E80000A94D2F729A73AA74BA75CA7B701A601F6
:100E9000002E04C076956795579547950A94D2F72A
:100EA00049A35AA36BA37CA3C701B601032C04C0BA
:100EB000660F771F881F991F0A94D2F76D8F7E8F58
:100EC0008F8F98A38DA19EA1AFA1B8A504C0B695A0
:100ED000A795979587950A95D2F74D8D5E8D6F8D65
:100EE00078A1482B592B6A2B7B2B4D8F5E8F6F8FF0
:100EF00078A34301AA24BB2493018201207030709F
:100F00000DA71EA72FA738AB69A17AA18BA19CA121
:100F1000A50194010E94D60E298F3A8F4B8F5C8FCA
:100F20006B017C0169A17AA18BA19CA1A50194010F
:100F30000E94D60ECA01B9012DA53EA54FA558A9FC
:100F40000E94F80EDC01CB017601DD24CC240D8D4E
:100F50001E8D2F8D38A1A90166277727C42AD52A8F
:100F6000E62AF72A098D1A8D2B8D3C8DC816D906D5
:100F7000EA06FB0638F5015010402040304009A336
:100F80001AA32BA33CA3C40CD51CE61CF71CC41449
:100F9000D504E604F704D0F0C816D906EA06FB0625
:100FA000A8F4098D1A8D2B8D3C8D025010402040E5
:100FB000304009A31AA32BA33CA3C40CD51CE61CE8
:100FC000F71C04C009A31AA32BA33CA3C81AD90A6F
:100FD000EA0AFB0AC701B601A50194010E94D60ED8
:100FE000298F3A8F4B8F5C8F69AB7AAB8BAB9CAB05
:100FF000C701B601A50194010E94D60ECA01B9012C
:101000002DA53EA54FA558A90E94F80E4B015C01E5
:1010100049A95AA96BA97CA99A01112700278D8D8E
:101020009E8DAF8DB8A1A070B070082B192B2A2B04
:101030003B2B898D9A8DAB8DBC8D081519052A0522
:101040003B05E0F40197A109B109040D151D261D0A
:10105000371D041515052605370580F008151905F7
:101060002A053B0558F4898D9A8DAB8DBC8D02976E
:10107000A109B109040D151D261D371DB901A801CF
:10108000481959096A097B094D8F5E8F6F8F78A3C4
:1010900009A11AA12BA13CA17801DD24CC24C82AE6
:1010A000D92AEA2AFB2AFFEF8F2EFFEF9F2EA12CD1
:1010B000B12C8C209D20AE20BF2087012227332712
:1010C000098F1A8F2B8F3C8F49A45AA46BA47CA440
:1010D0002FEF3FEF40E050E042225322642275227E
:1010E00029A53AA54BA55CA58A012227332709A388
:1010F0001AA32BA33CA3C501B401A30192010E9432
:10110000F80E69A77AA78BA79CA7C501B40129A1EE
:101110003AA14BA15CA10E94F80E4B015C01698DC4
:101120007A8D8B8D9C8DA30192010E94F80E2B016C
:101130003C01698D7A8D8B8D9C8D29A13AA14BA1A3
:101140005CA10E94F80EAB01BC01840C951CA61C8E
:10115000B71C09A51AA52BA53CA5C901AA27BB2721
:10116000880E991EAA1EBB1E84149504A604B704FB
:1011700020F4405050406F4F7F4FC501AA27BB2736
:10118000840F951FA61FB71F0D8D1E8D2F8D38A1A3
:10119000081719072A073B0718F180179107A207BC
:1011A000B307A1F554019924882489A59AA5ABA574
:1011B000BCA5A070B070880E991EAA1EBB1E4DA1C2
:1011C0005EA16FA178A5032C04C0440F551F661FB4
:1011D000771F0A94D2F7481559056A057B05B0F4C4
:1011E0000894C108D108E108F10810C0442455242E
:1011F0003201CC24DD2476010CC044245524320174
:1012000081E0C82ED12CE12CF12C03C044245524BC
:101210003201FE01319688E0DF011D928A95E9F7DF
:10122000C982DA82EB82FC824D825E826F8278868E
:101230002C2D3A814B815C81642D7E818F81988534
:10124000E496E1E10C94340FA0E0B0E0EAE2F9E0CA
:101250000C94190FEC014B01FA018881823008F4DB
:101260003EC1DB019C91923008F436C1843059F4C0
:10127000943009F034C1998111968C911197981787
:1012800009F027C12CC1943009F426C19230A9F489
:10129000823009F024C1CE0128E0DC010D90CD019F
:1012A000DA010D92AD012150C1F7D40111968C9154
:1012B000119799818923818311C1823009F40CC16E
:1012C000AA80BB80DB0112964D915C911397CC8074
:1012D000DD80EE80FF8014960D911D912D913C9143
:1012E0001797C501841B950BDC0197FF04C0AA2743
:1012F000BB27A81BB90BA032B1050CF067C01816AC
:10130000190684F5280139010A2E04C076946794E1
:10131000579447940A94D2F741E050E060E070E0BF
:1013200004C0440F551F661F771FAA95D2F741507E
:10133000504060407040402351236223732381E07A
:1013400090E0A0E0B0E0411551056105710519F488
:1013500080E090E0DC018C019D01042915292629FB
:1013600037293FC00097E9F1AA0EBB1E26013701BD
:101370000A2E04C076946794579447940A94D2F73F
:1013800041E050E060E070E004C0440F551F661F6C
:10139000771FAA95D2F741505040604070404C21D1
:1013A0005D216E217F2181E090E0A0E0B0E0411559
:1013B00051056105710519F480E090E0DC016C01D4
:1013C0007D01C428D528E628F7280BC04A155B05FF
:1013D00024F400E010E0980104C05A01CC24DD247C
:1013E00076018981D40111969C911197891709F48E
:1013F00045C0882329F00C191D092E093F0908C092
:10140000D701C601801B910BA20BB30B8C019D0170
:1014100037FD04C01182B382A2820BC081E08183B8
:10142000B382A28230952095109501951F4F2F4FC2
:101430003F4F04831583268337830DC0880F991F80
:10144000AA1FBB1F84839583A683B7838281938160
:1014500001979383828384819581A681B781AC01B2
:10146000BD0141505040604070404F3F2FEF520748
:101470002FEF62072FE3720708F30BC08183B3825B
:10148000A2820C0D1D1D2E1D3F1D04831583268376
:10149000378383E08083448155816681778177FF3C
:1014A0001DC0DB01CA0181709070A070B07076958C
:1014B000679557954795842B952BA62BB72B84833F
:1014C0009583A683B78382819381019693838283D8
:1014D00005C0C0E1D1E003C0E40101C0EF01CE01CD
:1014E000CDB7DEB7E0E10C94350FA0E2B0E0EBE75A
:1014F000FAE00C94270FDC01CB018D839E83AF8330
:10150000B88729833A834B835C83CE010596BE015D
:10151000675E7F4F0E940B0ECE010196BE016F5E8B
:101520007F4F0E940B0ECE014996BE016F5E7F4F2A
:10153000AE01475F5F4F0E9424090E94340D462F81
:10154000572F682F792FCB01BA01A096E2E00C94B7
:10155000430FA0E2B0E0EFEAFAE00C94270FDC01C1
:10156000CB018D839E83AF83B88729833A834B83D6
:101570005C83CE010596BE01675E7F4F0E940B0E15
:10158000CE010196BE016F5E7F4F0E940B0E8A89CD
:1015900091E089278A8BCE014996BE016F5E7F4F0D
:1015A000AE01475F5F4F0E9424090E94340D462F11
:1015B000572F682F792FCB01BA01A096E2E00C9447
:1015C000430FA0E2B0E0E7EEFAE00C94190FDC0163
:1015D000CB018D839E83AF83B88729833A834B8366
:1015E0005C83CE010596BE01675E7F4F0E940B0EA5
:1015F000CE010196BE016F5E7F4F0E940B0E998D4A
:10160000923078F089898230C0F0943019F48230B9
:1016100041F4CAC0843019F4923079F4C5C09230D4
:1016200051F481E02A8D9A89291709F480E08A8F84
:10163000CE014996BBC0823051F481E02A8D9A894F
:10164000291709F480E08A8BCE014196AFC04D8CFA
:101650005E8C6F8C78A00D891E892F89388DE0E211
:10166000F0E040E050E0BA01882499245401CC24F1
:10167000DD247601C201817090700097D1F0C00E18
:10168000D11EE21EF31EDB01CA01880D991DAA1DA1
:10169000BB1D41E050E060E070E0C016D106E206FC
:1016A000F30618F040E050E0BA01480F591F6A1FD6
:1016B0007B1F880C991CAA1CBB1C37FF08C081E04B
:1016C00090E0A0E0B0E0882A992AAA2ABB2A000F5D
:1016D000111F221F331F76946794579447943197B4
:1016E00049F68B8D9C8D2B893C89820F931F029626
:1016F0009C878B8781E02A8D9A89291709F480E0DD
:101700008A872B853C8517C0CA018170907000972D
:1017100061F0F694E794D794C79480E090E0A0E05D
:10172000B0E8C82AD92AEA2AFB2A76956795579500
:1017300047952F5F3F4F77FDE7CFC9010BC0440F9F
:10174000551F661F771FF7FC4160CC0CDD1CEE1C9B
:10175000FF1C01974030A0E05A07A0E06A07A0E410
:101760007A0768F38B879C87DB01CA018F779070BB
:10177000A070B07080349105A105B10561F447FDFA
:101780000AC0C114D104E104F10429F0405C5F4FA8
:101790006F4F7F4F40784D875E876F87788B83E0F0
:1017A0008987CE01099602C080E191E00E94340D44
:1017B000462F572F682F792FCB01BA01A096E0E171
:1017C0000C94350FA8E1B0E0E8EEFBE00C94270F95
:1017D000DC01CB018D839E83AF83B88729833A8355
:1017E0004B835C83CE010596BE016F5E7F4F0E94E6
:1017F0000B0ECE010196BE01675F7F4F0E940B0E5C
:101800008989823058F08985823040F0CE01419636
:10181000BE01675F7F4F0E94740E01C08FEF689614
:10182000E2E00C94430FACE0B0E0E9E1FCE00C94A2
:10183000250FDC01CB0189839A83AB83BC83CE0166
:101840000196BE016B5F7F4F0E940B0E8D8182302F
:1018500069F1823058F1843039F02F81388537FDB5
:1018600025C02F31310544F08E81882319F100E025
:1018700010E020E030E822C08EE190E0821B930B64
:1018800009851A852B853C8504C0369527951795C3
:1018900007958A95D2F78E81882381F0309520951F
:1018A000109501951F4F2F4F3F4F08C000E010E0EB
:1018B000980104C00FEF1FEF2FEF3FE7B801C901F8
:1018C0002C96E4E00C94410FA8E0B0E0EAE6FCE0DE
:1018D0000C94210F6B017C011A8261157105810541
:1018E000910519F482E089835EC083E089830EE16B
:1018F00010E01C830B83CD82DE82EF82F886C70165
:10190000B6010E94E10C9C012150304037FF38C0E5
:10191000EE27FF27E21BF30B81E090E0A0E0B0E0B0
:101920000E2E04C0880F991FAA1FBB1F0A94D2F75E
:101930000197A109B1098C219D21AE21BF2141E070
:1019400050E060E070E00097A105B10519F440E0B7
:1019500050E0BA0104C0F694E794D794C794EA958E
:10196000D2F7C42AD52AE62AF72ACD82DE82EF8270
:10197000F8868EE190E0821B930B9C838B8313C0CF
:101980002115310581F0022E04C0CC0CDD1CEE1CAB
:10199000FF1C0A94D2F7CD82DE82EF82F886021B0A
:1019A000130B1C830B83CE0101960E94340D462F2E
:1019B000572F682F792FCB01BA012896E8E00C94B5
:1019C0003D0FCF92DF92EF92FF920F931F938B0107
:1019D0009C01003080E0180781E0280780E038078C
:1019E00050F40F3F11052105310509F088F480E01E
:1019F00090E0DC0116C00030E0E01E07E0E02E07BA
:101A0000E1E03E0750F480E190E0A0E0B0E009C0E2
:101A100088E090E0A0E0B0E004C088E190E0A0E0C1
:101A2000B0E040E250E060E070E0481B590B6A0B08
:101A30007B0B6801790104C0F694E794D794C794AE
:101A40008A95D2F7D701C601885E9E4FFC0180813E
:101A5000481B510961097109CA011F910F91FF903B
:101A6000EF90DF90CF900895CF92DF92EF92FF92A8
:101A70000F931F93DC0114964D915D916D917C91B4
:101A800017971196EC9111978C91823020F4606138
:101A90008FEF90E0A5C0843009F49DC0823009F436
:101AA00094C0411551056105710509F491C0129664
:101AB0008D919C9113972FEF823892070CF059C0AB
:101AC00022E83FEF281B390B2A31310564F56A0102
:101AD0007B01022E04C0F694E794D794C7940A942D
:101AE000D2F781E090E0A0E0B0E004C0880F991F39
:101AF000AA1FBB1F2A95D2F70197A109B109842318
:101B00009523A623B72341E050E060E070E0009702
:101B1000A105B10519F440E050E0BA014C295D2956
:101B20006E297F2903C040E050E0BA01DB01CA0101
:101B30008F779070A070B07080349105A105B105C9
:101B400039F447FF09C0405C5F4F6F4F7F4F04C0BF
:101B5000415C5F4F6F4F7F4F81E090E0403020E06D
:101B6000520720E0620720E4720738F580E090E039
:101B700024C0803891057CF58A019B010F77107095
:101B800020703070003411052105310539F447FF0C
:101B900009C0405C5F4F6F4F7F4F04C0415C5F4F97
:101BA0006F4F7F4F77FD03C081589F4F06C07695DA
:101BB00067955795479580589F4F97E0769567951D
:101BC000579547959A95D1F70BC080E090E005C0F6
:101BD00080E090E005C08FEF90E040E050E0BA0177
:101BE000982F979599279795A62FAF77E795EE278A
:101BF000E79586953A2F392B282F2E2B842F952F5A
:101C0000A32FB22FBC01CD011F910F91FF90EF9038
:101C1000DF90CF900895DC01FB014C9111965C910F
:101C2000119712968C911297682F6F7770E0982F0A
:101C3000991F9927991F13962C911397822F880F1C
:101C4000892B90E0221F2227221F2183009739F53C
:101C5000411551056105710511F482E029C082E842
:101C60009FEF9383828327E0440F551F661F771FE2
:101C70002A95D1F783E0808309C0440F551F661F62
:101C8000771F82819381019793838283403080E024
:101C9000580780E0680780E4780778F320C08F3F1A
:101CA000910579F4411551056105710519F484E038
:101CB0008083089564FF03C081E0808310C0108298
:101CC0000EC08F5790409383828383E0808387E0A8
:101CD000440F551F661F771F8A95D1F770644483A0
:101CE0005583668377830895CF93FC01DB01908150
:101CF000923008F44CC08C91823008F448C0943083
:101D000069F42181843039F411968C91119790E017
:101D1000821B910944C02223D1F13FC0843021F0BD
:101D2000923041F48230B1F111968C911197882351
:101D3000A1F12DC0C181823001F111968C911197D2
:101D4000C817D9F48281938112962D913C911397F3
:101D50002817390794F082179307BCF04481558106
:101D60006681778114968D919D910D90BC91A02DE7
:101D700084179507A607B70718F4CC2341F00DC0C8
:101D8000481759076A077B0728F4CC2331F081E014
:101D900090E005C080E090E002C08FEF9FEFCF9110
:101DA00008950E946E000E947E00FDCFA1E21A2ECF
:101DB000AA1BBB1BFD010DC0AA1FBB1FEE1FFF1FEF
:101DC000A217B307E407F50720F0A21BB30BE40B3F
:101DD000F50B661F771F881F991F1A9469F7609586
:101DE0007095809590959B01AC01BD01CF01089540
:101DF000629FD001739FF001829FE00DF11D649FEF
:101E0000E00DF11D929FF00D839FF00D749FF00D7A
:101E1000659FF00D9927729FB00DE11DF91F639F1B
:101E2000B00DE11DF91FBD01CF01112408952F92BE
:101E30003F924F925F926F927F928F929F92AF925A
:101E4000BF92CF92DF92EF92FF920F931F93CF93A7
:101E5000DF93CDB7DEB7CA1BDB0B0FB6F894DEBF3E
:101E60000FBECDBF09942A88398848885F846E8464
:101E70007D848C849B84AA84B984C884DF80EE80AE
:101E8000FD800C811B81AA81B981CE0FD11D0FB6B7
:101E9000F894DEBF0FBECDBFED010895AEE0B0E017
:101EA000E4E5FFE00C94250F0D891E8986E08C8304
:101EB0001A8309838FEF9FE79E838D83AE01475E70
:101EC0005F4FCE0101966F89788D0E94700FEF8170
:101ED000F885E00FF11F10822E96E4E00C94410F7C
:101EE000ADE0B0E0E6E7FFE00C94170F3C017D8722
:101EF0006C875A01FC0117821682838181FFC8C159
:101F00002E010894411C511CF3019381EC85FD8541
:101F100093FD859193FF8191FD87EC87882309F4D8
:101F2000B3C1853241F493FD859193FF8191FD8783
:101F3000EC87853229F490E0B3010E946411E4CF6C
:101F4000FF24EE2410E01032B0F48B3269F08C32B2
:101F500028F4803251F0833271F40BC08D3239F0A5
:101F6000803349F411602CC01260146029C01860DD
:101F700027C0106125C017FD2EC0282F20532A30FE
:101F800098F416FF08C08F2D880FF82EFF0CFF0C59
:101F9000F80EF20E15C08E2D880FE82EEE0CEE0C0A
:101FA000E80EE20E10620CC08E3221F416FD6CC1F8
:101FB000106406C08C3611F4106802C0883659F4DB
:101FC000EC85FD8593FD859193FF8191FD87EC87DD
:101FD000882309F0B8CF982F9554933018F0905279
:101FE000933038F424E030E0A20EB31E3FE339838F
:101FF0000FC0833631F0833781F0833509F05AC042
:1020000022C0F5018081898322E030E0A20EB31E58
:1020100021E0C22ED12C420114C092E0292E312C95
:102020002A0C3B1CF5018080918016FF03C06F2DA8
:1020300070E002C06FEF7FEFC4010E9459116C0184
:1020400051011F7715C082E0282E312C2A0C3B1C31
:10205000F5018080918016FF03C06F2D70E002C0F3
:102060006FEF7FEFC4010E944E116C0110685101A7
:1020700013FD1CC006C080E290E0B3010E94641111
:10208000EA948E2D90E0C816D906A8F30FC0F4018B
:1020900017FD859117FF81914F0190E0B3010E94D8
:1020A0006411E110EA940894C108D108C114D10464
:1020B00071F7E7C0843611F0893651F5F50117FF45
:1020C00007C080819181A281B38124E030E008C003
:1020D00080819181AA2797FDA095BA2F22E030E058
:1020E000A20EB31E012F0F76B7FF08C0B095A095C2
:1020F000909581959F4FAF4FBF4F0068BC01CD01B8
:10210000A2012AE030E00E949011D82ED4183FC0DE
:10211000853721F41F7E2AE030E020C0197F8F36FA
:10212000A9F0803720F4883509F0AEC00BC08037A5
:1021300021F0883709F0A8C001C0106114FF09C060
:10214000146007C014FF08C0166006C028E030E025
:1021500005C020E130E002C020E132E0F50117FFC8
:1021600007C0608171818281938144E050E006C0A4
:102170006081718180E090E042E050E0A40EB51EE5
:10218000A2010E949011D82ED418012F0F7706FFBC
:1021900009C00E7FDF1430F404FF06C002FD04C046
:1021A0000F7E02C01D2D01C01F2D802F90E004FF67
:1021B0000CC0FE01ED0DF11D2081203311F4097ECC
:1021C00009C002FF06C01E5F05C0867890700097A8
:1021D00009F01F5F802E992403FD12C000FF0DC07F
:1021E000FD2C1E1550F4FE0CF11A1E2D06C080E2C7
:1021F00090E0B3010E9464111F5F1E15C0F304C07C
:102200001E1510F4E11A01C0EE2484FE0FC080E315
:1022100090E0B3010E94641182FE1FC081FE03C0E2
:1022200088E590E010C088E790E00DC0C401867892
:102230009070009791F081FC02C080E201C08BE2B7
:1022400007FD8DE290E0B3010E94641106C080E3B7
:1022500090E0B3010E946411FA94DF14C0F3DA94A1
:10226000F201ED0DF11D808190E0B3010E94641137
:10227000DD20A9F706C080E290E0B3010E9464115E
:10228000EA94EE20C1F740CEF3018681978102C027
:102290008FEF9FEF2D96E2E10C94330FFC01059038
:1022A000615070400110D8F7809590958E0F9F1F58
:1022B0000895FC016150704001900110D8F780959D
:1022C00090958E0F9F1F08950F931F93CF93DF93C9
:1022D0008C01EB018B8181FF1BC082FF0DC02E8121
:1022E0003F818C819D812817390764F4E881F98149
:1022F0000193F983E88306C0E885F985802F099565
:10230000009731F48E819F8101969F838E8302C056
:102310000FEF1FEFC801DF91CF911F910F9108952B
:10232000FA01AA27283051F1203181F1E8946F9306
:102330006E7F6E5F7F4F8F4F9F4FAF4FB1E03ED0AC
:10234000B4E03CD0670F781F891F9A1FA11D680F4A
:10235000791F8A1F911DA11D6A0F711D811D911D7D
:10236000A11D20D009F468943F912AE0269F1124F2
:102370003019305D3193DEF6CF010895462F477056
:10238000405D4193B3E00FD0C9F7F6CF462F4F70B1
:10239000405D4A3318F0495D31FD4052419302D00F
:1023A000A9F7EACFB4E0A6959795879577956795B5
:1023B000BA95C9F700976105710508959B01AC01B5
:1023C0000A2E06945795479537952795BA95C9F7DC
:1023D000620F731F841F951FA01D0895F894FFCFEF
:1023E000256C752E002530336C75204750480A0047
:1023F00000000000000000000001020203030303CC
:102400000404040404040404050505050505050584
:102410000505050505050505060606060606060664
:10242000060606060606060606060606060606064C
:102430000606060606060606070707070707070734
:10244000070707070707070707070707070707071C
:10245000070707070707070707070707070707070C
:1024600007070707070707070707070707070707FC
:1024700007070707070707070808080808080808E4
:1024800008080808080808080808080808080808CC
:1024900008080808080808080808080808080808BC
:1024A00008080808080808080808080808080808AC
:1024B000080808080808080808080808080808089C
:1024C000080808080808080808080808080808088C
:1024D000080808080808080808080808080808087C
:1024E000080808080808080808080808080808086C
:0824F0000808080808080808A4
:00000001FF
