:100000000C945E000C947B000C947B000C947B00A1
:100010000C947B000C947B000C947B000C947B0074
:100020000C947B000C947B000C947B000C947B0064
:100030000C947B000C947B000C947B000C947B0054
:100040000C947B000C947B000C947B000C947B0044
:100050000C947B000C947B000C947B000C947B0034
:100060000C947B000C947B004C696E652031206CF5
:100070006F6E676572207468616E2031342063682A
:1000800061726163746572730A004C696E65203237
:10009000206C6F6E676572207468616E2031342049
:1000A00063686172616374657273000708131414E6
:1000B00013080700100808080810000011241FBECC
:1000C000CFEFD8E0DEBFCDBF11E0A0E0B1E0EEE7BA
:1000D000F4E002C005900D92AA32B107D9F711E001
:1000E000AAE2B1E001C01D92AA32B107E1F70E9475
:1000F00087010C943D020C94000093B1EFE1FEE403
:100100003197F1F700C0000083B1892382FDF5CF5C
:100110001A9BFECF08955E9A85E08A95F1F700005C
:100120005E9808951F93CF93DF930F92CDB7DEB7FC
:10013000662311F05C9A01C05C985D989AB19F604B
:100140009AB91BB1107F982F92959F70912B9BB9F4
:1001500089830E948B0089818F70812B8BB90E94CB
:100160008B001F601BB90F90DF91CF911F910895F5
:100170005C985D9A8AB1807F8AB95E9A85E08A959B
:10018000F1F7000089B15E9895E09A95F1F70000CB
:100190005E9A95E09A95F1F7000099B19F7082956B
:1001A000807F5E98892B08950E94B80087FDFCCF60
:1001B00085E18A95F1F700000E94B8000895CF9379
:1001C000C82F0E94D4008C2F60E00E949200CF9133
:1001D0000895CF93C82F0E94D4008C2F61E00E9415
:1001E0009200CF910895662311F4805809C06130C0
:1001F00011F4805405C0623011F48C5601C08C5249
:100200000E94DF0008950E94D40090E0089581E0EC
:100210000E94DF00089582E00E94DF000895CF93DE
:10022000C82F0E94D400CA30A1F4843148F0982F1E
:100230009054943138F084518C3230F484E505C008
:1002400080E403C084E101C080E080580E94DF00A8
:1002500004C08C2F61E00E949200CF910895CF934B
:10026000DF93EC0102C00E940F0189918823D9F726
:10027000DF91CF910895CF93DF93EC0102C00E94EC
:100280000F01FE01219684918823C9F7DF91CF9158
:100290000895CF93C82F8AB18F678AB98FEF99EFEE
:1002A0000197F1F700C00000599A589A0E948B00FC
:1002B0008FE19EE40197F1F700C000000E948B00DF
:1002C0008FEF90E00197F1F700C000000E948B00D3
:1002D0008FEF90E00197F1F700C0000058980E945E
:1002E0008B008FEF90E00197F1F700C0000088E2EB
:1002F0000E94DF0088E00E94DF000E94070186E084
:100300000E94DF008C2F0E94DF00CF910895CF93D1
:10031000DF93CDB7DEB727970FB6F894DEBF0FBED9
:10032000CDBF22982A9A8CE00E9449010E940701C1
:1003300080E091E00E942F0181E191E00E942F0175
:1003400087E061E00E94F3008AE30E940F010E94AF
:100350007D008EE00E94DF0088E191E00E942F0185
:100360000E947D000E94070188E690E00E943B0108
:100370008AE890E00E943B0188E10E94DF000E9431
:100380007D008CE00E94DF000E94070186E890E07B
:10039000BE016F5F7F4F4AE050E00E94F801CE013E
:1003A00001960E942F010E947D000E9407018EE1AC
:1003B00091E00E942F0180E40E94DF0000E010E045
:1003C000F801E555FF4F84910E94E9000F5F1F4F30
:1003D00000311105A9F780E061E00E94F30080E0A0
:1003E0000E940F0181E00E940F010E947D009ECFBC
:1003F000FB019F01E8944230C4F04532B4F44A3026
:1004000029F497FB1EF4909581959F4F642F7727D1
:100410000E942902805D8A330CF0895D8193CB01B3
:100420000097A1F716F45DE251931082C9010C9474
:100430001902DC01FC01672F71917723E1F73297F4
:1004400004C07C916D9370836291AE17BF07C8F3AF
:100450000895AA1BBB1B51E107C0AA1FBB1FA6170B
:10046000B70710F0A61BB70B881F991F5A95A9F75D
:0E04700080959095BC01CD010895F894FFCFC2
:10047E004C43442054657374204C696E6520310AD8
:10048E00004C696E652032004375724F6E00436FEB
:0A049E00707972696768743A2000F3
:00000001FF
